{
  "_format": "hh-sol-artifact-1",
  "contractName": "NFT_MERKLE",
  "sourceName": "contracts/NFT_MERKLE.sol",
  "abi": [
    {
      "inputs": [],
      "stateMutability": "nonpayable",
      "type": "constructor"
    },
    {
      "anonymous": false,
      "inputs": [
        {
          "indexed": true,
          "internalType": "address",
          "name": "owner",
          "type": "address"
        },
        {
          "indexed": true,
          "internalType": "address",
          "name": "approved",
          "type": "address"
        },
        {
          "indexed": true,
          "internalType": "uint256",
          "name": "tokenId",
          "type": "uint256"
        }
      ],
      "name": "Approval",
      "type": "event"
    },
    {
      "anonymous": false,
      "inputs": [
        {
          "indexed": true,
          "internalType": "address",
          "name": "owner",
          "type": "address"
        },
        {
          "indexed": true,
          "internalType": "address",
          "name": "operator",
          "type": "address"
        },
        {
          "indexed": false,
          "internalType": "bool",
          "name": "approved",
          "type": "bool"
        }
      ],
      "name": "ApprovalForAll",
      "type": "event"
    },
    {
      "anonymous": false,
      "inputs": [
        {
          "indexed": true,
          "internalType": "address",
          "name": "from",
          "type": "address"
        },
        {
          "indexed": true,
          "internalType": "address",
          "name": "to",
          "type": "address"
        },
        {
          "indexed": true,
          "internalType": "uint256",
          "name": "tokenId",
          "type": "uint256"
        }
      ],
      "name": "Transfer",
      "type": "event"
    },
    {
      "inputs": [
        {
          "internalType": "address",
          "name": "to",
          "type": "address"
        },
        {
          "internalType": "uint256",
          "name": "tokenId",
          "type": "uint256"
        }
      ],
      "name": "approve",
      "outputs": [],
      "stateMutability": "nonpayable",
      "type": "function"
    },
    {
      "inputs": [
        {
          "internalType": "address",
          "name": "owner",
          "type": "address"
        }
      ],
      "name": "balanceOf",
      "outputs": [
        {
          "internalType": "uint256",
          "name": "",
          "type": "uint256"
        }
      ],
      "stateMutability": "view",
      "type": "function"
    },
    {
      "inputs": [
        {
          "internalType": "uint256",
          "name": "tokenId",
          "type": "uint256"
        }
      ],
      "name": "getApproved",
      "outputs": [
        {
          "internalType": "address",
          "name": "",
          "type": "address"
        }
      ],
      "stateMutability": "view",
      "type": "function"
    },
    {
      "inputs": [
        {
          "internalType": "address",
          "name": "owner",
          "type": "address"
        },
        {
          "internalType": "address",
          "name": "operator",
          "type": "address"
        }
      ],
      "name": "isApprovedForAll",
      "outputs": [
        {
          "internalType": "bool",
          "name": "",
          "type": "bool"
        }
      ],
      "stateMutability": "view",
      "type": "function"
    },
    {
      "inputs": [
        {
          "internalType": "bytes32[]",
          "name": "proof",
          "type": "bytes32[]"
        },
        {
          "internalType": "bytes32",
          "name": "leaf",
          "type": "bytes32"
        }
      ],
      "name": "isValid",
      "outputs": [
        {
          "internalType": "bool",
          "name": "",
          "type": "bool"
        }
      ],
      "stateMutability": "view",
      "type": "function"
    },
    {
      "inputs": [],
      "name": "name",
      "outputs": [
        {
          "internalType": "string",
          "name": "",
          "type": "string"
        }
      ],
      "stateMutability": "view",
      "type": "function"
    },
    {
      "inputs": [
        {
          "internalType": "uint256",
          "name": "tokenId",
          "type": "uint256"
        }
      ],
      "name": "ownerOf",
      "outputs": [
        {
          "internalType": "address",
          "name": "",
          "type": "address"
        }
      ],
      "stateMutability": "view",
      "type": "function"
    },
    {
      "inputs": [
        {
          "internalType": "bytes32",
          "name": "_rootUser",
          "type": "bytes32"
        }
      ],
      "name": "rootUser",
      "outputs": [],
      "stateMutability": "nonpayable",
      "type": "function"
    },
    {
      "inputs": [
        {
          "internalType": "address",
          "name": "",
          "type": "address"
        }
      ],
      "name": "rootUsers",
      "outputs": [
        {
          "internalType": "bytes32",
          "name": "",
          "type": "bytes32"
        }
      ],
      "stateMutability": "view",
      "type": "function"
    },
    {
      "inputs": [
        {
          "internalType": "bytes32[]",
          "name": "proof",
          "type": "bytes32[]"
        }
      ],
      "name": "safeMint",
      "outputs": [],
      "stateMutability": "nonpayable",
      "type": "function"
    },
    {
      "inputs": [
        {
          "internalType": "address",
          "name": "from",
          "type": "address"
        },
        {
          "internalType": "address",
          "name": "to",
          "type": "address"
        },
        {
          "internalType": "uint256",
          "name": "tokenId",
          "type": "uint256"
        }
      ],
      "name": "safeTransferFrom",
      "outputs": [],
      "stateMutability": "nonpayable",
      "type": "function"
    },
    {
      "inputs": [
        {
          "internalType": "address",
          "name": "from",
          "type": "address"
        },
        {
          "internalType": "address",
          "name": "to",
          "type": "address"
        },
        {
          "internalType": "uint256",
          "name": "tokenId",
          "type": "uint256"
        },
        {
          "internalType": "bytes",
          "name": "_data",
          "type": "bytes"
        }
      ],
      "name": "safeTransferFrom",
      "outputs": [],
      "stateMutability": "nonpayable",
      "type": "function"
    },
    {
      "inputs": [
        {
          "internalType": "address",
          "name": "operator",
          "type": "address"
        },
        {
          "internalType": "bool",
          "name": "approved",
          "type": "bool"
        }
      ],
      "name": "setApprovalForAll",
      "outputs": [],
      "stateMutability": "nonpayable",
      "type": "function"
    },
    {
      "inputs": [
        {
          "internalType": "bytes4",
          "name": "interfaceId",
          "type": "bytes4"
        }
      ],
      "name": "supportsInterface",
      "outputs": [
        {
          "internalType": "bool",
          "name": "",
          "type": "bool"
        }
      ],
      "stateMutability": "view",
      "type": "function"
    },
    {
      "inputs": [],
      "name": "symbol",
      "outputs": [
        {
          "internalType": "string",
          "name": "",
          "type": "string"
        }
      ],
      "stateMutability": "view",
      "type": "function"
    },
    {
      "inputs": [
        {
          "internalType": "uint256",
          "name": "tokenId",
          "type": "uint256"
        }
      ],
      "name": "tokenURI",
      "outputs": [
        {
          "internalType": "string",
          "name": "",
          "type": "string"
        }
      ],
      "stateMutability": "view",
      "type": "function"
    },
    {
      "inputs": [
        {
          "internalType": "address",
          "name": "from",
          "type": "address"
        },
        {
          "internalType": "address",
          "name": "to",
          "type": "address"
        },
        {
          "internalType": "uint256",
          "name": "tokenId",
          "type": "uint256"
        }
      ],
      "name": "transferFrom",
      "outputs": [],
      "stateMutability": "nonpayable",
      "type": "function"
    }
  ],
  "bytecode": "0x60806040523480156200001157600080fd5b50604080518082018252601381527f4e4654204152424f4c204445204d45524b4c450000000000000000000000000060208083019182528351808501909452600684526527232a26a2a960d11b908401528151919291620000759160009162000094565b5080516200008b90600190602084019062000094565b50505062000177565b828054620000a2906200013a565b90600052602060002090601f016020900481019282620000c6576000855562000111565b82601f10620000e157805160ff191683800117855562000111565b8280016001018555821562000111579182015b8281111562000111578251825591602001919060010190620000f4565b506200011f92915062000123565b5090565b5b808211156200011f576000815560010162000124565b600181811c908216806200014f57607f821691505b602082108114156200017157634e487b7160e01b600052602260045260246000fd5b50919050565b6116f980620001876000396000f3fe608060405234801561001057600080fd5b506004361061010b5760003560e01c806370a08231116100a2578063b8a20ed011610071578063b8a20ed014610235578063c87b56dd14610248578063cfa44ce71461025b578063e985e9c51461027b578063f2d646a1146102b757600080fd5b806370a08231146101f457806395d89b4114610207578063a22cb4651461020f578063b88d4fde1461022257600080fd5b806323b872dd116100de57806323b872dd1461018d5780632f47490f146101a057806342842e0e146101ce5780636352211e146101e157600080fd5b806301ffc9a71461011057806306fdde0314610138578063081812fc1461014d578063095ea7b314610178575b600080fd5b61012361011e3660046113d8565b6102ca565b60405190151581526020015b60405180910390f35b61014061031c565b60405161012f91906114a8565b61016061015b3660046113c0565b6103ae565b6040516001600160a01b03909116815260200161012f565b61018b610186366004611321565b610448565b005b61018b61019b3660046111f4565b61055e565b6101c06101ae3660046111a8565b60066020526000908152604090205481565b60405190815260200161012f565b61018b6101dc3660046111f4565b61058f565b6101606101ef3660046113c0565b6105aa565b6101c06102023660046111a8565b610621565b6101406106a8565b61018b61021d3660046112e7565b6106b7565b61018b61023036600461122f565b6106c6565b61012361024336600461137d565b6106fe565b6101406102563660046113c0565b610721565b61018b6102693660046113c0565b33600090815260066020526040902055565b6101236102893660046111c2565b6001600160a01b03918216600090815260056020908152604080832093909416825291909152205460ff1690565b61018b6102c536600461134a565b610808565b60006001600160e01b031982166380ac58cd60e01b14806102fb57506001600160e01b03198216635b5e139f60e01b145b8061031657506301ffc9a760e01b6001600160e01b03198316145b92915050565b60606000805461032b906115fe565b80601f0160208091040260200160405190810160405280929190818152602001828054610357906115fe565b80156103a45780601f10610379576101008083540402835291602001916103a4565b820191906000526020600020905b81548152906001019060200180831161038757829003601f168201915b5050505050905090565b6000818152600260205260408120546001600160a01b031661042c5760405162461bcd60e51b815260206004820152602c60248201527f4552433732313a20617070726f76656420717565727920666f72206e6f6e657860448201526b34b9ba32b73a103a37b5b2b760a11b60648201526084015b60405180910390fd5b506000908152600460205260409020546001600160a01b031690565b6000610453826105aa565b9050806001600160a01b0316836001600160a01b031614156104c15760405162461bcd60e51b815260206004820152602160248201527f4552433732313a20617070726f76616c20746f2063757272656e74206f776e656044820152603960f91b6064820152608401610423565b336001600160a01b03821614806104dd57506104dd8133610289565b61054f5760405162461bcd60e51b815260206004820152603860248201527f4552433732313a20617070726f76652063616c6c6572206973206e6f74206f7760448201527f6e6572206e6f7220617070726f76656420666f7220616c6c00000000000000006064820152608401610423565b61055983836108b8565b505050565b6105683382610926565b6105845760405162461bcd60e51b81526004016104239061150d565b610559838383610a1d565b610559838383604051806020016040528060008152506106c6565b6000818152600260205260408120546001600160a01b0316806103165760405162461bcd60e51b815260206004820152602960248201527f4552433732313a206f776e657220717565727920666f72206e6f6e657869737460448201526832b73a103a37b5b2b760b91b6064820152608401610423565b60006001600160a01b03821661068c5760405162461bcd60e51b815260206004820152602a60248201527f4552433732313a2062616c616e636520717565727920666f7220746865207a65604482015269726f206164647265737360b01b6064820152608401610423565b506001600160a01b031660009081526003602052604090205490565b60606001805461032b906115fe565b6106c2338383610bb9565b5050565b6106d03383610926565b6106ec5760405162461bcd60e51b81526004016104239061150d565b6106f884848484610c88565b50505050565b3360009081526006602052604081205461071a90849084610cbb565b9392505050565b6000818152600260205260409020546060906001600160a01b03166107a05760405162461bcd60e51b815260206004820152602f60248201527f4552433732314d657461646174613a2055524920717565727920666f72206e6f60448201526e3732bc34b9ba32b73a103a37b5b2b760891b6064820152608401610423565b60006107b760408051602081019091526000815290565b905060008151116107d7576040518060200160405280600081525061071a565b806107e184610cd1565b6040516020016107f292919061143c565b6040516020818303038152906040529392505050565b6040516bffffffffffffffffffffffff193360601b166020820152610847908290603401604051602081830303815290604052805190602001206106fe565b6108935760405162461bcd60e51b815260206004820152601c60248201527f4e6f2070657274656e6563652061206c61205768697465204c697374000000006044820152606401610423565b6108a1600780546001019055565b60006108ac60075490565b90506106c23382610deb565b600081815260046020526040902080546001600160a01b0319166001600160a01b03841690811790915581906108ed826105aa565b6001600160a01b03167f8c5be1e5ebec7d5bd14f71427d1e84f3dd0314c0f7b2291e5b200ac8c7c3b92560405160405180910390a45050565b6000818152600260205260408120546001600160a01b031661099f5760405162461bcd60e51b815260206004820152602c60248201527f4552433732313a206f70657261746f7220717565727920666f72206e6f6e657860448201526b34b9ba32b73a103a37b5b2b760a11b6064820152608401610423565b60006109aa836105aa565b9050806001600160a01b0316846001600160a01b031614806109e55750836001600160a01b03166109da846103ae565b6001600160a01b0316145b80610a1557506001600160a01b0380821660009081526005602090815260408083209388168352929052205460ff165b949350505050565b826001600160a01b0316610a30826105aa565b6001600160a01b031614610a945760405162461bcd60e51b815260206004820152602560248201527f4552433732313a207472616e736665722066726f6d20696e636f72726563742060448201526437bbb732b960d91b6064820152608401610423565b6001600160a01b038216610af65760405162461bcd60e51b8152602060048201526024808201527f4552433732313a207472616e7366657220746f20746865207a65726f206164646044820152637265737360e01b6064820152608401610423565b610b016000826108b8565b6001600160a01b0383166000908152600360205260408120805460019290610b2a9084906115bb565b90915550506001600160a01b0382166000908152600360205260408120805460019290610b5890849061158f565b909155505060008181526002602052604080822080546001600160a01b0319166001600160a01b0386811691821790925591518493918716917fddf252ad1be2c89b69c2b068fc378daa952ba7f163c4a11628f55a4df523b3ef91a4505050565b816001600160a01b0316836001600160a01b03161415610c1b5760405162461bcd60e51b815260206004820152601960248201527f4552433732313a20617070726f766520746f2063616c6c6572000000000000006044820152606401610423565b6001600160a01b03838116600081815260056020908152604080832094871680845294825291829020805460ff191686151590811790915591519182527f17307eab39ab6107e8899845ad3d59bd9653f200f220920489ca2b5937696c31910160405180910390a3505050565b610c93848484610a1d565b610c9f84848484610e05565b6106f85760405162461bcd60e51b8152600401610423906114bb565b600082610cc88584610f12565b14949350505050565b606081610cf55750506040805180820190915260018152600360fc1b602082015290565b8160005b8115610d1f5780610d0981611639565b9150610d189050600a836115a7565b9150610cf9565b60008167ffffffffffffffff811115610d4857634e487b7160e01b600052604160045260246000fd5b6040519080825280601f01601f191660200182016040528015610d72576020820181803683370190505b5090505b8415610a1557610d876001836115bb565b9150610d94600a86611654565b610d9f90603061158f565b60f81b818381518110610dc257634e487b7160e01b600052603260045260246000fd5b60200101906001600160f81b031916908160001a905350610de4600a866115a7565b9450610d76565b6106c2828260405180602001604052806000815250610f94565b60006001600160a01b0384163b15610f0757604051630a85bd0160e11b81526001600160a01b0385169063150b7a0290610e4990339089908890889060040161146b565b602060405180830381600087803b158015610e6357600080fd5b505af1925050508015610e93575060408051601f3d908101601f19168201909252610e90918101906113f4565b60015b610eed573d808015610ec1576040519150601f19603f3d011682016040523d82523d6000602084013e610ec6565b606091505b508051610ee55760405162461bcd60e51b8152600401610423906114bb565b805181602001fd5b6001600160e01b031916630a85bd0160e11b149050610a15565b506001949350505050565b600081815b8451811015610f8c576000858281518110610f4257634e487b7160e01b600052603260045260246000fd5b60200260200101519050808311610f685760008381526020829052604090209250610f79565b600081815260208490526040902092505b5080610f8481611639565b915050610f17565b509392505050565b610f9e8383610fc7565b610fab6000848484610e05565b6105595760405162461bcd60e51b8152600401610423906114bb565b6001600160a01b03821661101d5760405162461bcd60e51b815260206004820181905260248201527f4552433732313a206d696e7420746f20746865207a65726f20616464726573736044820152606401610423565b6000818152600260205260409020546001600160a01b0316156110825760405162461bcd60e51b815260206004820152601c60248201527f4552433732313a20746f6b656e20616c7265616479206d696e746564000000006044820152606401610423565b6001600160a01b03821660009081526003602052604081208054600192906110ab90849061158f565b909155505060008181526002602052604080822080546001600160a01b0319166001600160a01b03861690811790915590518392907fddf252ad1be2c89b69c2b068fc378daa952ba7f163c4a11628f55a4df523b3ef908290a45050565b80356001600160a01b038116811461112057600080fd5b919050565b600082601f830112611135578081fd5b8135602067ffffffffffffffff82111561115157611151611694565b8160051b61116082820161155e565b83815282810190868401838801850189101561117a578687fd5b8693505b8584101561119c57803583526001939093019291840191840161117e565b50979650505050505050565b6000602082840312156111b9578081fd5b61071a82611109565b600080604083850312156111d4578081fd5b6111dd83611109565b91506111eb60208401611109565b90509250929050565b600080600060608486031215611208578081fd5b61121184611109565b925061121f60208501611109565b9150604084013590509250925092565b60008060008060808587031215611244578081fd5b61124d85611109565b9350602061125c818701611109565b935060408601359250606086013567ffffffffffffffff8082111561127f578384fd5b818801915088601f830112611292578384fd5b8135818111156112a4576112a4611694565b6112b6601f8201601f1916850161155e565b915080825289848285010111156112cb578485fd5b8084840185840137810190920192909252939692955090935050565b600080604083850312156112f9578182fd5b61130283611109565b915060208301358015158114611316578182fd5b809150509250929050565b60008060408385031215611333578182fd5b61133c83611109565b946020939093013593505050565b60006020828403121561135b578081fd5b813567ffffffffffffffff811115611371578182fd5b610a1584828501611125565b6000806040838503121561138f578182fd5b823567ffffffffffffffff8111156113a5578283fd5b6113b185828601611125565b95602094909401359450505050565b6000602082840312156113d1578081fd5b5035919050565b6000602082840312156113e9578081fd5b813561071a816116aa565b600060208284031215611405578081fd5b815161071a816116aa565b600081518084526114288160208601602086016115d2565b601f01601f19169290920160200192915050565b6000835161144e8184602088016115d2565b8351908301906114628183602088016115d2565b01949350505050565b6001600160a01b038581168252841660208201526040810183905260806060820181905260009061149e90830184611410565b9695505050505050565b60208152600061071a6020830184611410565b60208082526032908201527f4552433732313a207472616e7366657220746f206e6f6e20455243373231526560408201527131b2b4bb32b91034b6b83632b6b2b73a32b960711b606082015260800190565b60208082526031908201527f4552433732313a207472616e736665722063616c6c6572206973206e6f74206f6040820152701ddb995c881b9bdc88185c1c1c9bdd9959607a1b606082015260800190565b604051601f8201601f1916810167ffffffffffffffff8111828210171561158757611587611694565b604052919050565b600082198211156115a2576115a2611668565b500190565b6000826115b6576115b661167e565b500490565b6000828210156115cd576115cd611668565b500390565b60005b838110156115ed5781810151838201526020016115d5565b838111156106f85750506000910152565b600181811c9082168061161257607f821691505b6020821081141561163357634e487b7160e01b600052602260045260246000fd5b50919050565b600060001982141561164d5761164d611668565b5060010190565b6000826116635761166361167e565b500690565b634e487b7160e01b600052601160045260246000fd5b634e487b7160e01b600052601260045260246000fd5b634e487b7160e01b600052604160045260246000fd5b6001600160e01b0319811681146116c057600080fd5b5056fea2646970667358221220a891ebfa84788f718ef1abf6ef0c28d54f20e9267713283bea816a4836d1e37c64736f6c63430008040033",
  "linkReferences": {},
  "deployedLinkReferences": {}
}