{
  "_format": "hh-sol-artifact-1",
  "contractName": "NFT_MERKLE",
  "sourceName": "contracts/NFT_MERKLE.sol",
  "abi": [
    {
      "inputs": [],
      "stateMutability": "nonpayable",
      "type": "constructor"
    },
    {
      "anonymous": false,
      "inputs": [
        {
          "indexed": true,
          "internalType": "address",
          "name": "owner",
          "type": "address"
        },
        {
          "indexed": true,
          "internalType": "address",
          "name": "approved",
          "type": "address"
        },
        {
          "indexed": true,
          "internalType": "uint256",
          "name": "tokenId",
          "type": "uint256"
        }
      ],
      "name": "Approval",
      "type": "event"
    },
    {
      "anonymous": false,
      "inputs": [
        {
          "indexed": true,
          "internalType": "address",
          "name": "owner",
          "type": "address"
        },
        {
          "indexed": true,
          "internalType": "address",
          "name": "operator",
          "type": "address"
        },
        {
          "indexed": false,
          "internalType": "bool",
          "name": "approved",
          "type": "bool"
        }
      ],
      "name": "ApprovalForAll",
      "type": "event"
    },
    {
      "anonymous": false,
      "inputs": [
        {
          "indexed": true,
          "internalType": "address",
          "name": "from",
          "type": "address"
        },
        {
          "indexed": true,
          "internalType": "address",
          "name": "to",
          "type": "address"
        },
        {
          "indexed": true,
          "internalType": "uint256",
          "name": "tokenId",
          "type": "uint256"
        }
      ],
      "name": "Transfer",
      "type": "event"
    },
    {
      "inputs": [
        {
          "internalType": "address",
          "name": "to",
          "type": "address"
        },
        {
          "internalType": "uint256",
          "name": "tokenId",
          "type": "uint256"
        }
      ],
      "name": "approve",
      "outputs": [],
      "stateMutability": "nonpayable",
      "type": "function"
    },
    {
      "inputs": [
        {
          "internalType": "address",
          "name": "owner",
          "type": "address"
        }
      ],
      "name": "balanceOf",
      "outputs": [
        {
          "internalType": "uint256",
          "name": "",
          "type": "uint256"
        }
      ],
      "stateMutability": "view",
      "type": "function"
    },
    {
      "inputs": [
        {
          "internalType": "uint256",
          "name": "tokenId",
          "type": "uint256"
        }
      ],
      "name": "getApproved",
      "outputs": [
        {
          "internalType": "address",
          "name": "",
          "type": "address"
        }
      ],
      "stateMutability": "view",
      "type": "function"
    },
    {
      "inputs": [
        {
          "internalType": "address",
          "name": "owner",
          "type": "address"
        },
        {
          "internalType": "address",
          "name": "operator",
          "type": "address"
        }
      ],
      "name": "isApprovedForAll",
      "outputs": [
        {
          "internalType": "bool",
          "name": "",
          "type": "bool"
        }
      ],
      "stateMutability": "view",
      "type": "function"
    },
    {
      "inputs": [
        {
          "internalType": "bytes32[]",
          "name": "proof",
          "type": "bytes32[]"
        },
        {
          "internalType": "bytes32",
          "name": "leaf",
          "type": "bytes32"
        }
      ],
      "name": "isValid",
      "outputs": [
        {
          "internalType": "bool",
          "name": "",
          "type": "bool"
        }
      ],
      "stateMutability": "view",
      "type": "function"
    },
    {
      "inputs": [],
      "name": "name",
      "outputs": [
        {
          "internalType": "string",
          "name": "",
          "type": "string"
        }
      ],
      "stateMutability": "view",
      "type": "function"
    },
    {
      "inputs": [
        {
          "internalType": "uint256",
          "name": "tokenId",
          "type": "uint256"
        }
      ],
      "name": "ownerOf",
      "outputs": [
        {
          "internalType": "address",
          "name": "",
          "type": "address"
        }
      ],
      "stateMutability": "view",
      "type": "function"
    },
    {
      "inputs": [
        {
          "internalType": "bytes32",
          "name": "_rootUser",
          "type": "bytes32"
        }
      ],
      "name": "rootUser",
      "outputs": [],
      "stateMutability": "nonpayable",
      "type": "function"
    },
    {
      "inputs": [
        {
          "internalType": "bytes32[]",
          "name": "proof",
          "type": "bytes32[]"
        }
      ],
      "name": "safeMint",
      "outputs": [],
      "stateMutability": "nonpayable",
      "type": "function"
    },
    {
      "inputs": [
        {
          "internalType": "address",
          "name": "from",
          "type": "address"
        },
        {
          "internalType": "address",
          "name": "to",
          "type": "address"
        },
        {
          "internalType": "uint256",
          "name": "tokenId",
          "type": "uint256"
        }
      ],
      "name": "safeTransferFrom",
      "outputs": [],
      "stateMutability": "nonpayable",
      "type": "function"
    },
    {
      "inputs": [
        {
          "internalType": "address",
          "name": "from",
          "type": "address"
        },
        {
          "internalType": "address",
          "name": "to",
          "type": "address"
        },
        {
          "internalType": "uint256",
          "name": "tokenId",
          "type": "uint256"
        },
        {
          "internalType": "bytes",
          "name": "data",
          "type": "bytes"
        }
      ],
      "name": "safeTransferFrom",
      "outputs": [],
      "stateMutability": "nonpayable",
      "type": "function"
    },
    {
      "inputs": [
        {
          "internalType": "address",
          "name": "operator",
          "type": "address"
        },
        {
          "internalType": "bool",
          "name": "approved",
          "type": "bool"
        }
      ],
      "name": "setApprovalForAll",
      "outputs": [],
      "stateMutability": "nonpayable",
      "type": "function"
    },
    {
      "inputs": [
        {
          "internalType": "bytes4",
          "name": "interfaceId",
          "type": "bytes4"
        }
      ],
      "name": "supportsInterface",
      "outputs": [
        {
          "internalType": "bool",
          "name": "",
          "type": "bool"
        }
      ],
      "stateMutability": "view",
      "type": "function"
    },
    {
      "inputs": [],
      "name": "symbol",
      "outputs": [
        {
          "internalType": "string",
          "name": "",
          "type": "string"
        }
      ],
      "stateMutability": "view",
      "type": "function"
    },
    {
      "inputs": [
        {
          "internalType": "uint256",
          "name": "tokenId",
          "type": "uint256"
        }
      ],
      "name": "tokenURI",
      "outputs": [
        {
          "internalType": "string",
          "name": "",
          "type": "string"
        }
      ],
      "stateMutability": "view",
      "type": "function"
    },
    {
      "inputs": [
        {
          "internalType": "address",
          "name": "from",
          "type": "address"
        },
        {
          "internalType": "address",
          "name": "to",
          "type": "address"
        },
        {
          "internalType": "uint256",
          "name": "tokenId",
          "type": "uint256"
        }
      ],
      "name": "transferFrom",
      "outputs": [],
      "stateMutability": "nonpayable",
      "type": "function"
    }
  ],
  "bytecode": "0x60806040523480156200001157600080fd5b50604080518082018252601381527f4e4654204152424f4c204445204d45524b4c450000000000000000000000000060208083019182528351808501909452600684526527232a26a2a960d11b908401528151919291620000759160009162000094565b5080516200008b90600190602084019062000094565b50505062000177565b828054620000a2906200013a565b90600052602060002090601f016020900481019282620000c6576000855562000111565b82601f10620000e157805160ff191683800117855562000111565b8280016001018555821562000111579182015b8281111562000111578251825591602001919060010190620000f4565b506200011f92915062000123565b5090565b5b808211156200011f576000815560010162000124565b600181811c908216806200014f57607f821691505b602082108114156200017157634e487b7160e01b600052602260045260246000fd5b50919050565b6115c080620001876000396000f3fe608060405234801561001057600080fd5b50600436106101005760003560e01c806395d89b4111610097578063c87b56dd11610066578063c87b56dd1461021d578063cfa44ce714610230578063e985e9c514610250578063f2d646a11461028c57600080fd5b806395d89b41146101dc578063a22cb465146101e4578063b88d4fde146101f7578063b8a20ed01461020a57600080fd5b806323b872dd116100d357806323b872dd1461018257806342842e0e146101955780636352211e146101a857806370a08231146101bb57600080fd5b806301ffc9a71461010557806306fdde031461012d578063081812fc14610142578063095ea7b31461016d575b600080fd5b6101186101133660046112a5565b61029f565b60405190151581526020015b60405180910390f35b6101356102f1565b6040516101249190611375565b61015561015036600461128d565b610383565b6040516001600160a01b039091168152602001610124565b61018061017b3660046111ee565b6103aa565b005b6101806101903660046110c1565b6104c5565b6101806101a33660046110c1565b6104f6565b6101556101b636600461128d565b610511565b6101ce6101c9366004611075565b610571565b604051908152602001610124565b6101356105f7565b6101806101f23660046111b4565b610606565b6101806102053660046110fc565b610615565b61011861021836600461124a565b61064d565b61013561022b36600461128d565b610670565b61018061023e36600461128d565b33600090815260066020526040902055565b61011861025e36600461108f565b6001600160a01b03918216600090815260056020908152604080832093909416825291909152205460ff1690565b61018061029a366004611217565b6106e3565b60006001600160e01b031982166380ac58cd60e01b14806102d057506001600160e01b03198216635b5e139f60e01b145b806102eb57506301ffc9a760e01b6001600160e01b03198316145b92915050565b606060008054610300906114c8565b80601f016020809104026020016040519081016040528092919081815260200182805461032c906114c8565b80156103795780601f1061034e57610100808354040283529160200191610379565b820191906000526020600020905b81548152906001019060200180831161035c57829003601f168201915b5050505050905090565b600061038e82610793565b506000908152600460205260409020546001600160a01b031690565b60006103b582610511565b9050806001600160a01b0316836001600160a01b031614156104285760405162461bcd60e51b815260206004820152602160248201527f4552433732313a20617070726f76616c20746f2063757272656e74206f776e656044820152603960f91b60648201526084015b60405180910390fd5b336001600160a01b03821614806104445750610444813361025e565b6104b65760405162461bcd60e51b815260206004820152603e60248201527f4552433732313a20617070726f76652063616c6c6572206973206e6f7420746f60448201527f6b656e206f776e6572206e6f7220617070726f76656420666f7220616c6c0000606482015260840161041f565b6104c083836107f5565b505050565b6104cf3382610863565b6104eb5760405162461bcd60e51b815260040161041f906113da565b6104c08383836108e2565b6104c083838360405180602001604052806000815250610615565b6000818152600260205260408120546001600160a01b0316806102eb5760405162461bcd60e51b8152602060048201526018602482015277115490cdcc8c4e881a5b9d985b1a59081d1bdad95b88125160421b604482015260640161041f565b60006001600160a01b0382166105db5760405162461bcd60e51b815260206004820152602960248201527f4552433732313a2061646472657373207a65726f206973206e6f7420612076616044820152683634b21037bbb732b960b91b606482015260840161041f565b506001600160a01b031660009081526003602052604090205490565b606060018054610300906114c8565b610611338383610a7e565b5050565b61061f3383610863565b61063b5760405162461bcd60e51b815260040161041f906113da565b61064784848484610b4d565b50505050565b3360009081526006602052604081205461066990849084610b80565b9392505050565b606061067b82610793565b600061069260408051602081019091526000815290565b905060008151116106b25760405180602001604052806000815250610669565b806106bc84610b96565b6040516020016106cd929190611309565b6040516020818303038152906040529392505050565b6040516bffffffffffffffffffffffff193360601b1660208201526107229082906034016040516020818303038152906040528051906020012061064d565b61076e5760405162461bcd60e51b815260206004820152601c60248201527f4e6f2070657274656e6563652061206c61205768697465204c69737400000000604482015260640161041f565b61077c600780546001019055565b600061078760075490565b90506106113382610cb0565b6000818152600260205260409020546001600160a01b03166107f25760405162461bcd60e51b8152602060048201526018602482015277115490cdcc8c4e881a5b9d985b1a59081d1bdad95b88125160421b604482015260640161041f565b50565b600081815260046020526040902080546001600160a01b0319166001600160a01b038416908117909155819061082a82610511565b6001600160a01b03167f8c5be1e5ebec7d5bd14f71427d1e84f3dd0314c0f7b2291e5b200ac8c7c3b92560405160405180910390a45050565b60008061086f83610511565b9050806001600160a01b0316846001600160a01b031614806108b657506001600160a01b0380821660009081526005602090815260408083209388168352929052205460ff165b806108da5750836001600160a01b03166108cf84610383565b6001600160a01b0316145b949350505050565b826001600160a01b03166108f582610511565b6001600160a01b0316146109595760405162461bcd60e51b815260206004820152602560248201527f4552433732313a207472616e736665722066726f6d20696e636f72726563742060448201526437bbb732b960d91b606482015260840161041f565b6001600160a01b0382166109bb5760405162461bcd60e51b8152602060048201526024808201527f4552433732313a207472616e7366657220746f20746865207a65726f206164646044820152637265737360e01b606482015260840161041f565b6109c66000826107f5565b6001600160a01b03831660009081526003602052604081208054600192906109ef908490611485565b90915550506001600160a01b0382166000908152600360205260408120805460019290610a1d908490611459565b909155505060008181526002602052604080822080546001600160a01b0319166001600160a01b0386811691821790925591518493918716917fddf252ad1be2c89b69c2b068fc378daa952ba7f163c4a11628f55a4df523b3ef91a4505050565b816001600160a01b0316836001600160a01b03161415610ae05760405162461bcd60e51b815260206004820152601960248201527f4552433732313a20617070726f766520746f2063616c6c657200000000000000604482015260640161041f565b6001600160a01b03838116600081815260056020908152604080832094871680845294825291829020805460ff191686151590811790915591519182527f17307eab39ab6107e8899845ad3d59bd9653f200f220920489ca2b5937696c31910160405180910390a3505050565b610b588484846108e2565b610b6484848484610cca565b6106475760405162461bcd60e51b815260040161041f90611388565b600082610b8d8584610dd7565b14949350505050565b606081610bba5750506040805180820190915260018152600360fc1b602082015290565b8160005b8115610be45780610bce81611503565b9150610bdd9050600a83611471565b9150610bbe565b60008167ffffffffffffffff811115610c0d57634e487b7160e01b600052604160045260246000fd5b6040519080825280601f01601f191660200182016040528015610c37576020820181803683370190505b5090505b84156108da57610c4c600183611485565b9150610c59600a8661151e565b610c64906030611459565b60f81b818381518110610c8757634e487b7160e01b600052603260045260246000fd5b60200101906001600160f81b031916908160001a905350610ca9600a86611471565b9450610c3b565b610611828260405180602001604052806000815250610e32565b60006001600160a01b0384163b15610dcc57604051630a85bd0160e11b81526001600160a01b0385169063150b7a0290610d0e903390899088908890600401611338565b602060405180830381600087803b158015610d2857600080fd5b505af1925050508015610d58575060408051601f3d908101601f19168201909252610d55918101906112c1565b60015b610db2573d808015610d86576040519150601f19603f3d011682016040523d82523d6000602084013e610d8b565b606091505b508051610daa5760405162461bcd60e51b815260040161041f90611388565b805181602001fd5b6001600160e01b031916630a85bd0160e11b1490506108da565b506001949350505050565b600081815b8451811015610e2a57610e1682868381518110610e0957634e487b7160e01b600052603260045260246000fd5b6020026020010151610e65565b915080610e2281611503565b915050610ddc565b509392505050565b610e3c8383610e94565b610e496000848484610cca565b6104c05760405162461bcd60e51b815260040161041f90611388565b6000818310610e81576000828152602084905260409020610669565b6000838152602083905260409020610669565b6001600160a01b038216610eea5760405162461bcd60e51b815260206004820181905260248201527f4552433732313a206d696e7420746f20746865207a65726f2061646472657373604482015260640161041f565b6000818152600260205260409020546001600160a01b031615610f4f5760405162461bcd60e51b815260206004820152601c60248201527f4552433732313a20746f6b656e20616c7265616479206d696e74656400000000604482015260640161041f565b6001600160a01b0382166000908152600360205260408120805460019290610f78908490611459565b909155505060008181526002602052604080822080546001600160a01b0319166001600160a01b03861690811790915590518392907fddf252ad1be2c89b69c2b068fc378daa952ba7f163c4a11628f55a4df523b3ef908290a45050565b80356001600160a01b0381168114610fed57600080fd5b919050565b600082601f830112611002578081fd5b8135602067ffffffffffffffff82111561101e5761101e61155e565b8160051b61102d828201611428565b838152828101908684018388018501891015611047578687fd5b8693505b8584101561106957803583526001939093019291840191840161104b565b50979650505050505050565b600060208284031215611086578081fd5b61066982610fd6565b600080604083850312156110a1578081fd5b6110aa83610fd6565b91506110b860208401610fd6565b90509250929050565b6000806000606084860312156110d5578081fd5b6110de84610fd6565b92506110ec60208501610fd6565b9150604084013590509250925092565b60008060008060808587031215611111578081fd5b61111a85610fd6565b93506020611129818701610fd6565b935060408601359250606086013567ffffffffffffffff8082111561114c578384fd5b818801915088601f83011261115f578384fd5b8135818111156111715761117161155e565b611183601f8201601f19168501611428565b91508082528984828501011115611198578485fd5b8084840185840137810190920192909252939692955090935050565b600080604083850312156111c6578182fd5b6111cf83610fd6565b9150602083013580151581146111e3578182fd5b809150509250929050565b60008060408385031215611200578182fd5b61120983610fd6565b946020939093013593505050565b600060208284031215611228578081fd5b813567ffffffffffffffff81111561123e578182fd5b6108da84828501610ff2565b6000806040838503121561125c578182fd5b823567ffffffffffffffff811115611272578283fd5b61127e85828601610ff2565b95602094909401359450505050565b60006020828403121561129e578081fd5b5035919050565b6000602082840312156112b6578081fd5b813561066981611574565b6000602082840312156112d2578081fd5b815161066981611574565b600081518084526112f581602086016020860161149c565b601f01601f19169290920160200192915050565b6000835161131b81846020880161149c565b83519083019061132f81836020880161149c565b01949350505050565b6001600160a01b038581168252841660208201526040810183905260806060820181905260009061136b908301846112dd565b9695505050505050565b60208152600061066960208301846112dd565b60208082526032908201527f4552433732313a207472616e7366657220746f206e6f6e20455243373231526560408201527131b2b4bb32b91034b6b83632b6b2b73a32b960711b606082015260800190565b6020808252602e908201527f4552433732313a2063616c6c6572206973206e6f7420746f6b656e206f776e6560408201526d1c881b9bdc88185c1c1c9bdd995960921b606082015260800190565b604051601f8201601f1916810167ffffffffffffffff811182821017156114515761145161155e565b604052919050565b6000821982111561146c5761146c611532565b500190565b60008261148057611480611548565b500490565b60008282101561149757611497611532565b500390565b60005b838110156114b757818101518382015260200161149f565b838111156106475750506000910152565b600181811c908216806114dc57607f821691505b602082108114156114fd57634e487b7160e01b600052602260045260246000fd5b50919050565b600060001982141561151757611517611532565b5060010190565b60008261152d5761152d611548565b500690565b634e487b7160e01b600052601160045260246000fd5b634e487b7160e01b600052601260045260246000fd5b634e487b7160e01b600052604160045260246000fd5b6001600160e01b0319811681146107f257600080fdfea26469706673582212209793fe1e4c887509e0b0e7c96ac3b6ba106834658eaeef028b245269a2718c3264736f6c63430008040033",
  "linkReferences": {},
  "deployedLinkReferences": {}
}