{
  "_format": "hh-sol-artifact-1",
  "contractName": "ReceiverPays",
  "sourceName": "contracts/ReceiverPays.sol",
  "abi": [
    {
      "inputs": [],
      "stateMutability": "payable",
      "type": "constructor"
    },
    {
      "inputs": [],
      "name": "balanceOf",
      "outputs": [
        {
          "internalType": "uint256",
          "name": "",
          "type": "uint256"
        }
      ],
      "stateMutability": "view",
      "type": "function"
    },
    {
      "inputs": [
        {
          "internalType": "address",
          "name": "payer",
          "type": "address"
        },
        {
          "internalType": "uint256",
          "name": "amount",
          "type": "uint256"
        },
        {
          "internalType": "uint256",
          "name": "nonce",
          "type": "uint256"
        },
        {
          "internalType": "bytes",
          "name": "signature",
          "type": "bytes"
        }
      ],
      "name": "claimPayment",
      "outputs": [],
      "stateMutability": "nonpayable",
      "type": "function"
    },
    {
      "inputs": [],
      "name": "moreMoney",
      "outputs": [],
      "stateMutability": "payable",
      "type": "function"
    },
    {
      "inputs": [
        {
          "internalType": "uint256",
          "name": "",
          "type": "uint256"
        }
      ],
      "name": "noncesAmount",
      "outputs": [
        {
          "internalType": "uint256",
          "name": "",
          "type": "uint256"
        }
      ],
      "stateMutability": "view",
      "type": "function"
    },
    {
      "inputs": [
        {
          "internalType": "uint256",
          "name": "",
          "type": "uint256"
        }
      ],
      "name": "noncesRecipients",
      "outputs": [
        {
          "internalType": "address",
          "name": "",
          "type": "address"
        }
      ],
      "stateMutability": "view",
      "type": "function"
    },
    {
      "inputs": [],
      "name": "owner",
      "outputs": [
        {
          "internalType": "address payable",
          "name": "",
          "type": "address"
        }
      ],
      "stateMutability": "view",
      "type": "function"
    },
    {
      "inputs": [
        {
          "internalType": "address",
          "name": "recipient",
          "type": "address"
        }
      ],
      "name": "recipientBalance",
      "outputs": [
        {
          "internalType": "uint256",
          "name": "",
          "type": "uint256"
        }
      ],
      "stateMutability": "view",
      "type": "function"
    },
    {
      "inputs": [],
      "name": "shutdown",
      "outputs": [],
      "stateMutability": "nonpayable",
      "type": "function"
    },
    {
      "inputs": [
        {
          "internalType": "uint256",
          "name": "",
          "type": "uint256"
        }
      ],
      "name": "usedNonces",
      "outputs": [
        {
          "internalType": "bool",
          "name": "",
          "type": "bool"
        }
      ],
      "stateMutability": "view",
      "type": "function"
    }
  ],
  "bytecode": "0x6080604052600080546001600160a01b031916331790556106b7806100256000396000f3fe6080604052600436106100865760003560e01c80635d2a5617116100595780635d2a5617146102115780636717e41c14610219578063722713f7146102575780638da5cb5b1461026c578063fc0e74d11461028157610086565b80630b822dde1461008b5780631ff6f4b7146100d1578063410b9c051461011657806350036a3a146101e7575b600080fd5b34801561009757600080fd5b506100b5600480360360208110156100ae57600080fd5b5035610296565b604080516001600160a01b039092168252519081900360200190f35b3480156100dd57600080fd5b50610104600480360360208110156100f457600080fd5b50356001600160a01b03166102b1565b60408051918252519081900360200190f35b34801561012257600080fd5b506101e56004803603608081101561013957600080fd5b6001600160a01b03823516916020810135916040820135919081019060808101606082013564010000000081111561017057600080fd5b82018360208201111561018257600080fd5b803590602001918460018302840111640100000000831117156101a457600080fd5b91908080601f0160208091040260200160405190810160405280939291908181526020018383808284376000920191909152509295506102cc945050505050565b005b3480156101f357600080fd5b506101046004803603602081101561020a57600080fd5b503561048c565b6101e561049e565b34801561022557600080fd5b506102436004803603602081101561023c57600080fd5b50356104b5565b604080519115158252519081900360200190f35b34801561026357600080fd5b506101046104ca565b34801561027857600080fd5b506100b56104ce565b34801561028d57600080fd5b506101e56104dd565b6002602052600090815260409020546001600160a01b031681565b6001600160a01b031660009081526004602052604090205490565b60008281526001602052604090205460ff1615610330576040805162461bcd60e51b815260206004820152601b60248201527f45737465206368657175652079612073652068612070616761646f0000000000604482015290519081900360640190fd5b6040805133606090811b60208084019190915260348301879052605483018690523090911b6074830152825160688184030181526088909201909252805191012060009061037d90610531565b9050846001600160a01b03166103938284610582565b6001600160a01b0316146103a657600080fd5b6001600160a01b0385166000908152600460205260409020548411156103fd5760405162461bcd60e51b815260040180806020018281038252604c815260200180610636604c913960600191505060405180910390fd5b6000838152600160208181526040808420805460ff19169093179092556001600160a01b0388168352600490528082208054879003905551339186156108fc02918791818181858888f1935050505015801561045d573d6000803e3d6000fd5b505050600090815260026020908152604080832080546001600160a01b03191633179055600390915290205550565b60036020526000908152604090205481565b336000908152600460205260409020805434019055565b60016020526000908152604090205460ff1681565b4790565b6000546001600160a01b031681565b6000546001600160a01b031633146104f457600080fd5b600080546040516001600160a01b03909116914780156108fc02929091818181858888f1935050505015801561052e573d6000803e3d6000fd5b50565b604080517f19457468657265756d205369676e6564204d6573736167653a0a333200000000602080830191909152603c8083019490945282518083039094018452605c909101909152815191012090565b60008060008061059185610606565b92509250925060018684848460405160008152602001604052604051808581526020018460ff1681526020018381526020018281526020019450505050506020604051602081039080840390855afa1580156105f1573d6000803e3d6000fd5b5050604051601f190151979650505050505050565b6000806000835160411461061957600080fd5b5050506020810151604082015160609092015160001a9290919056fe456c2070616761646f72206e6f20646973706f6e652064656c2064696e65726f20737566696369656e746520706172612070616761726c652e205265636c616d6520737520696e677265736fa2646970667358221220d7e7d3ea52a270be58d7cb79064948ac2bbe1d7a0dd0e21161d972a1a7461e4964736f6c63430007060033",
  "linkReferences": {},
  "deployedLinkReferences": {}
}