{
  "_format": "hh-sol-artifact-1",
  "contractName": "Signature",
  "sourceName": "contracts/Signature.sol",
  "abi": [
    {
      "inputs": [
        {
          "internalType": "bytes32",
          "name": "_messageHash",
          "type": "bytes32"
        }
      ],
      "name": "getEthSignedMessageHash",
      "outputs": [
        {
          "internalType": "bytes32",
          "name": "",
          "type": "bytes32"
        }
      ],
      "stateMutability": "pure",
      "type": "function"
    },
    {
      "inputs": [
        {
          "internalType": "address",
          "name": "_to",
          "type": "address"
        },
        {
          "internalType": "uint256",
          "name": "_amount",
          "type": "uint256"
        },
        {
          "internalType": "uint256",
          "name": "_nonce",
          "type": "uint256"
        },
        {
          "internalType": "address",
          "name": "_contract",
          "type": "address"
        }
      ],
      "name": "getMessageHash",
      "outputs": [
        {
          "internalType": "bytes32",
          "name": "",
          "type": "bytes32"
        }
      ],
      "stateMutability": "pure",
      "type": "function"
    },
    {
      "inputs": [
        {
          "internalType": "bytes32",
          "name": "_ethSignedMessageHash",
          "type": "bytes32"
        },
        {
          "internalType": "bytes",
          "name": "_signature",
          "type": "bytes"
        }
      ],
      "name": "recoverSigner",
      "outputs": [
        {
          "internalType": "address",
          "name": "",
          "type": "address"
        }
      ],
      "stateMutability": "pure",
      "type": "function"
    },
    {
      "inputs": [
        {
          "internalType": "bytes",
          "name": "sig",
          "type": "bytes"
        }
      ],
      "name": "splitSignature",
      "outputs": [
        {
          "internalType": "bytes32",
          "name": "r",
          "type": "bytes32"
        },
        {
          "internalType": "bytes32",
          "name": "s",
          "type": "bytes32"
        },
        {
          "internalType": "uint8",
          "name": "v",
          "type": "uint8"
        }
      ],
      "stateMutability": "pure",
      "type": "function"
    },
    {
      "inputs": [
        {
          "internalType": "address",
          "name": "_signer",
          "type": "address"
        },
        {
          "internalType": "address",
          "name": "_to",
          "type": "address"
        },
        {
          "internalType": "uint256",
          "name": "_amount",
          "type": "uint256"
        },
        {
          "internalType": "uint256",
          "name": "_nonce",
          "type": "uint256"
        },
        {
          "internalType": "address",
          "name": "_contract",
          "type": "address"
        },
        {
          "internalType": "bytes",
          "name": "signature",
          "type": "bytes"
        }
      ],
      "name": "verify",
      "outputs": [
        {
          "internalType": "bool",
          "name": "",
          "type": "bool"
        }
      ],
      "stateMutability": "pure",
      "type": "function"
    }
  ],
  "bytecode": "0x608060405234801561001057600080fd5b50610561806100206000396000f3fe608060405234801561001057600080fd5b50600436106100575760003560e01c80636aa404521461005c57806397aba7f914610143578063a7bb58031461020c578063bfa4bf9a146102d3578063fa5408011461031f575b600080fd5b61012f600480360360c081101561007257600080fd5b6001600160a01b038235811692602081013582169260408201359260608301359260808101359091169181019060c0810160a08201356401000000008111156100ba57600080fd5b8201836020820111156100cc57600080fd5b803590602001918460018302840111640100000000831117156100ee57600080fd5b91908080601f01602080910402602001604051908101604052809392919081815260200183838082843760009201919091525092955061033c945050505050565b604080519115158252519081900360200190f35b6101f06004803603604081101561015957600080fd5b8135919081019060408101602082013564010000000081111561017b57600080fd5b82018360208201111561018d57600080fd5b803590602001918460018302840111640100000000831117156101af57600080fd5b91908080601f016020809104026020016040519081016040528093929190818152602001838380828437600092019190915250929550610385945050505050565b604080516001600160a01b039092168252519081900360200190f35b6102b26004803603602081101561022257600080fd5b81019060208101813564010000000081111561023d57600080fd5b82018360208201111561024f57600080fd5b8035906020019184600183028401116401000000008311171561027157600080fd5b91908080601f016020809104026020016040519081016040528093929190818152602001838380828437600092019190915250929550610409945050505050565b60408051938452602084019290925260ff1682820152519081900360600190f35b61030d600480360360808110156102e957600080fd5b506001600160a01b0381358116916020810135916040820135916060013516610482565b60408051918252519081900360200190f35b61030d6004803603602081101561033557600080fd5b50356104da565b60008061034b87878787610482565b90506000610358826104da565b9050886001600160a01b031661036e8286610385565b6001600160a01b0316149998505050505050505050565b60008060008061039485610409565b92509250925060018682858560405160008152602001604052604051808581526020018460ff1681526020018381526020018281526020019450505050506020604051602081039080840390855afa1580156103f4573d6000803e3d6000fd5b5050604051601f190151979650505050505050565b60008060008351604114610464576040805162461bcd60e51b815260206004820152601860248201527f696e76616c6964207369676e6174757265206c656e6774680000000000000000604482015290519081900360640190fd5b50505060208101516040820151606090920151909260009190911a90565b604080516bffffffffffffffffffffffff19606096871b8116602080840191909152603483019690965260548201949094529190941b9091166074820152825160688183030181526088909101909252815191012090565b604080517f19457468657265756d205369676e6564204d6573736167653a0a333200000000602080830191909152603c8083019490945282518083039094018452605c90910190915281519101209056fea2646970667358221220d69f3c15de97541d89dc6b780dcb0c31e3b3418964b70818c67f6655c03263ac64736f6c63430007060033",
  "linkReferences": {},
  "deployedLinkReferences": {}
}